:020000040800F2
:100000000004002011030008110400081104000876
:10001000110400081104000811040008110400086C
:10002000110400081104000811040008410400082C
:10003000110400081104000811040008010500085B
:10004000110400081104000811040008110400083C
:10005000110400081104000811040008110400082C
:1000600011040008110400081104000831200008E0
:100070006120000891200008C1200008F12000083C
:100080002121000851210008110400081104000872
:1000900011040008110400081104000811040008EC
:1000A000110400088133000811040008B13300086E
:1000B000110400081104000811340008A12B0008E5
:1000C000C12C0008110400081104000811040008E4
:1000D000110400081104000851360008110400083A
:1000E000110400081104000811040008110400089C
:1000F00011040008110400081104000881210008FF
:10010000110400081104000811040008110400087B
:10011000110400081104000811040008110400086B
:10012000B1210008E1210008112200084122000845
:1001300071220008110400081104000811040008CD
:10014000110400081104000811040008110400083B
:10015000A1220008D1220008012300081104000890
:10016000110400081104000811040008110400081B
:1001700011040008110400081126000811040008E9
:1001800011040008110400081104000811040008FB
:1001900011040008110400081104000811040008EB
:0C01A000110400081104000811040008FC
:1001B00030B58BB001F094F900F03AFA05F068FB25
:1001C0003D483E4C002101F023FE3D48042140F211
:1001D000823202F0DDFB40F282320821384802F020
:1001E000D7FB05F075F8374801F0F2FB3548364982
:1001F00001F0FEFB4FF4805121832046192202F0CA
:10020000C7FB20464FF4005140F29A2202F0C0FB97
:1002100020464FF4804140F2822202F0B9FB204692
:100220004FF4004140F29A2202F0B2FB274A284BD9
:1002300012601B60202383F311880A24254D264871
:10024000264A204B2C60214600F06AFA002383F3F3
:1002500011880024224B00944FF4A87140222148B9
:1002600000F026FC02A91948012200F049FE06A967
:100270001748022200F044FE22461148012102F0F4
:1002800087FB64B1237F0E2B11D04FF0FF3000F0BD
:100290008FFE0146144800F073FE002CF2D1134883
:1002A0004FF40D61402205F02BF80446EDE720469F
:1002B00000F07EFC0024E8E73C0B00200004024034
:1002C00000000240B094012038080020E49401208E
:1002D000080E002004950120EC940120715F0008B5
:1002E000B15D000808950120E072000880730008E5
:1002F000704700BFAFF30080AFF30080AFF3008022
:10030000FEE700BFAFF30080AFF30080AFF30080E3
:1003100072B6304880F30988022383F31488BFF350
:100320006F8F2D4B2D4A93420BD2D943114421F0AC
:10033000030119444FF05532043B43F8042F8B421C
:10034000FBD1274B83420CD226491A1D891A21F072
:10035000030119444FF05532043B43F8042F8B42FC
:10036000FBD103F05DFA2049204B99420BD2C843E0
:10037000184420F003001E4C04300023E258CA50F9
:1003800004338342FAD11B4B1B4A93420AD2D9430E
:10039000114421F0030119440022043B43F8042FC7
:1003A0008B42FBD1154D164CFFF7A2FFAC4204D295
:1003B00054F8043B9847AC42FAD3124D124CFFF765
:1003C000F7FEAC4204D254F8043B9847AC42FAD34F
:1003D000FFF796FF00080020000000200004002026
:1003E000000400200308002000080020540800201A
:1003F000187B00085408002058960120AC01000822
:10040000AC010008AC010008AC010008AFF30080AB
:10041000FEE700BFAFF30080AFF30080AFF30080D2
:1004200072B6FEE7AFF30080AFF30080AFF3008059
:1004300000F0CEFA00DF00BFAFF30080AFF3008022
:10044000EFF30983203383F30988002383F31188B2
:10045000704700BFAFF30080AFF30080AFF30080C0
:1004600008B5094B094A002199600720DA6010217C
:1004700000F0B6F80A20202100F0B2F80B2080210D
:10048000BDE8084000F0ACB800ED00E00003FA055C
:10049000202383F31188164B5B6813F4006319D093
:1004A000EFF309834FF0807243F8042CA3F120028C
:1004B00082F309880F498A690968D07F8968926840
:1004C00058B1914294BF0022012262B10A4A43F816
:1004D000082C704783F311887047914234BF002283
:1004E0000122002AF2D1054A43F8082C704700BFC8
:1004F00000ED00E0900900203104000834040008F9
:1005000008B5202383F3118800F0CAF8002383F391
:100510001188BDE80840FFF7BBBF00BFAFF3008004
:100520002DE9F04FC1F80CD0D0F80CD0BDE8F08F19
:10053000002383F311882846A04700F031FB704761
:1005400020F0030202F1604202F56142F0B4430977
:1005500000F00304D2F80053E400FF269B00A640FD
:1005600003F1604325EA060503F561430127A14035
:1005700000F01F0007FA00F045EA0104C2F800434A
:10058000C3F88001F0BC1860704700BFAFF3008073
:10059000410930B4203100F01F0401250C4A20F03D
:1005A000030305FA04F403F1604342F8214003F524
:1005B000614300F00300D3F80023C000FF2101FADB
:1005C00000F022EA0000C3F8000330BC704700BF0F
:1005D00000E100E0AFF30080AFF30080AFF30080F4
:1005E00020F0030303F1604303F56D4300F00300C3
:1005F00010B4C0009A69FF24844022EA04028140BA
:100600000A439A615DF8044B704700BFAFF3008066
:10061000024B034A9B699A61FEE700BF90090020E4
:10062000D0640008AFF30080AFF30080AFF3008028
:1006300000B583B0FFF714FF00F0E2F800F060F8B7
:1006400000F036FE00F07CFE40210D4800F0D0F9AD
:100650000C4A012303779061002383F3118862B66B
:100660001346094A9B6909489A6100230093E021D7
:100670000122074B00F01CFA03B05DF804FB00BF39
:100680005408002090090020E0640008A008002021
:1006900011060008AFF30080AFF30080AFF30080D5
:1006A00070B5144B9B69DA7F0AB1013ADA771A6A9E
:1006B000114901321A62CB680A6801338A42CB6061
:1006C00016D09668013E966096B90D461068D468BB
:1006D0000860D6600023416083F311881069A04749
:1006E000202383F311882A6803499368002BEDD0F7
:1006F00070BD00BF9009002080090020AFF300808A
:10070000044B4FF0FF3100225B601B609960DA60A0
:10071000704700BF80090020AFF30080AFF3008076
:1007200070B40C4E3468A5680361A942C26004D954
:100730002468491BA5688D42FAD363684360B442BC
:10074000046060601860816002D0A368591AA160DB
:1007500070BC704780090020AFF30080AFF30080C9
:10076000074A0368934203D0996882680A449A60F2
:1007700042681360036800215A60C160704700BF7F
:1007800080090020AFF30080AFF30080AFF300805A
:1007900010B4202383F31188037F0D2B11D8DFE8D9
:1007A00003F026101007100B101010101010100B73
:1007B000436A9A6801329A6090E80C001A600268F5
:1007C00053604FF0FF34002381680C4A4462037782
:1007D000126893688B42FBD251684160026000232B
:1007E0005060086083F311885DF8044B7047002364
:1007F00083F311885DF8044B704700BF9009002017
:10080000034B00225B601B605B611B619A60704759
:1008100090090020AFF30080AFF30080AFF30080B9
:1008200000228168084B10B4044602771B689A685E
:100830008A42FBD25A686260236020465C60146082
:100840005DF8044B704700BF90090020AFF30080B3
:10085000084B30B41A689969146808770125142088
:10086000C877636015771C60104630BC9A61FFF74B
:1008700057BE00BF90090020AFF30080AFF30080A7
:1008800030B54B1C87B0054611D00C4C0C4AA369FF
:1008900001A8FFF745FF2846FFF7DAFF049B13B1D5
:1008A00001A8FFF75DFFA369586A07B030BD034C8C
:1008B000FFF7CEFFA369586A07B030BD900900204A
:1008C00091070008AFF30080AFF30080AFF3008022
:1008D000DFF858C0F0B4DCF818708568BC68416275
:1008E000A54206460DD80022634602771B689A6827
:1008F0009542FBD95A68726033605E601660F0BC46
:10090000704700233B7763461B689A689442FBD983
:100910005A687A6001243B605F601760347739461B
:100920003046CCF81860F0BCFFF7FABD9009002003
:100930000E4A1068F0B40368956913600127142605
:100940000021AC685A60077703469061EE772977FB
:1009500000E01B689A68A242FBD25A686A602B606A
:1009600029465D601560F0BCFFF7DABD90090020F4
:100970000D4A106870B40368956913600126002160
:10098000AC685A60067703469061297700E01B68DF
:100990009A68A242FBD85A686A602B6029465D605B
:1009A000156070BCFFF7BCBD90090020AFF300805C
:1009B000044B1A689B6992689B689A4200D87047FA
:1009C000FFF7D6BF90090020AFF30080AFF300809F
:1009D000034B9B69DB7F0BB1FFF7CABFFFF7A8BFD3
:1009E00090090020AFF30080AFF30080AFF30080E8
:1009F0002DE9F003114C016465694561002200F1A5
:100A00002C064FF002094FF0140800F128074FF0B0
:100A1000010C0461816080F81C90606180F81F8087
:100A200080F81EC04277C2638263026282612861DD
:100A300087620663C662BDE8F00370479009002034
:100A40002DE9F00F184D089FD5F814C0DFF85C8031
:100A500024394618C6604FF0020B43504FF0140A79
:100A60007760002300F12C074FF0010900F1280105
:100A7000C6F820800561826080F81CB080F81FA055
:100A800080F81E90C0F814C0026468614377C363A5
:100A9000836303628361CCF810000763C7628162DD
:100AA000BDE8F00F704700BF900900203105000835
:100AB0002DE9F84F9E460446202383F311881B4EF0
:100AC000DFF86CB07769243908440025E06004F150
:100AD0002C0344F801E004F1280C0A9941604FF01E
:100AE000020A4FF014094FF00108C0F820B029465F
:100AF000A26026616761226484F81CA084F81F90BC
:100B000084F81E8065777461E563A5632562A5613D
:100B100020463C612363E362C4F828C0FFF7D8FE97
:100B20002B4683F311882046BDE8F88F90090020FA
:100B300031050008AFF30080AFF30080AFF3008011
:100B400008B50146202383F311880620FFF798FE9D
:100B5000002383F3118808BDAFF30080AFF300805A
:100B600038B50E4B9C692546606255F8280FA8429F
:100B700006D00368A362FFF753FEA06AA842F8D12B
:100B8000637F9B0704D1636922691A6122695361FB
:100B90000E20BDE83840FFF75BBE00BF9009002083
:100BA000202383F31188FFF7DBBF00BFAFF3008082
:100BB0000146202383F31188827F013AD2B28277E3
:100BC000002383F3118812B9037F0E2B00D07047E6
:100BD000437F03F00303012B02D0022B07D07047A1
:100BE000436902691A610269536100F0F9BB436904
:100BF00002691A610269406C536100F061BC00BF78
:100C000070B582B016461C460D4600F0A9FB98B19F
:100C1000202383F31188069B0093294632462346FE
:100C2000FFF70EFF0123437700210446FFF750FE34
:100C3000002383F31188204602B070BDAFF300801B
:100C4000202383F31188044B1869837F0133837752
:100C5000002383F31188704790090020AFF30080D0
:100C600010B5202383F31188074B04699C421DBFF4
:100C7000A37F0133A3770024002383F31188FFF7B8
:100C800097FF204610BD00BF90090020AFF3008001
:100C90004060006081607047AFF30080AFF3008078
:100CA00070B5856881600135002D04460BDC6FF05E
:100CB00001066068436863601C60FFF7B1FD0135A1
:100CC000012D4662F5D170BDAFF30080AFF3008017
:100CD00008B5202383F31188FFF7E2FFFFF768FED2
:100CE000002383F3118808BDAFF30080AFF30080C9
:100CF00003468068421E002A10B49A6003DB00207D
:100D00005DF8044B704761B1084A926953625C68B0
:100D1000032082E818005A6022605DF8044BFFF758
:100D2000AFBD98604FF0FF30EAE700BF90090020A8
:100D300008B5202383F31188FFF7DAFF002383F33C
:100D4000118808BDAFF30080AFF30080AFF30080DF
:100D500008B50246202383F3118883680133002BF2
:100D6000836003DD002383F3118808BD00680368F6
:100D7000136000215A60FFF7ABFD002383F3118855
:100D800008BD00BFAFF30080AFF30080AFF3008079
:100D90000023406000608360704700BFAFF30080B5
:100DA00070B52F4B054680689C69002853D0A26817
:100DB00083689A4206D9037F8260042B32D0052BC8
:100DC0001CD09BB12B4603E09968A268914202D3E4
:100DD0001B689D42F8D15A68626023605C601460B1
:100DE00065620420BDE87040FFF732BD90E80C005A
:100DF0001A6002685360FFF713FDE3E790E80A000A
:100E00001960466A01684B60334602E099688A427D
:100E100002D81B689E42F9D15A684260036058604C
:100E20001060CFE790E80A001960466A01684B60DD
:100E3000334602E09968914202D31B689E42F9D181
:100E40005A684260036058601060B068A2688368A6
:100E50009342B0D3B6E7E36BEB60AC60E56370BD83
:100E600090090020AFF30080AFF30080AFF3008063
:100E700008B5202383F31188FFF792FF002383F343
:100E8000118808BDAFF30080AFF30080AFF300809E
:100E9000174A38B59069202383F31188C46B2568FD
:100EA000E368C363A5421CD0016C4BB11A689A4237
:100EB00003D09268914238BF1146DB68002BF5D110
:100EC0002B68EA6B8160236028465C600021A56086
:100ED000E260EC63FFF7FCFC002383F311882046FB
:100EE00038BD0023A360002383F31188204638BD5A
:100EF00090090020AFF30080AFF30080AFF30080D3
:100F000030B4202383F31188064C0368A5690B6075
:100F10000024016023464D608A60CC6083F3118811
:100F200030BC704790090020AFF30080AFF3008021
:100F300008B5826B037F1143082B81630BD0092B0B
:100F400000D008BD436A19408B42FAD1FFF768FC14
:100F50000023436208BD436A1942F7D108BD00BFB0
:100F600070B50468A04205460E4608D0201D0BC887
:100F70003343E360FFF7DCFF2468A542F6D170BD80
:100F8000F8B50D46074689B10024012601E0013479
:100F900065B106FA04F32B42F9D057F82420204615
:100FA00025EA030501349047002DF2D1F8BD00BFBA
:100FB00038B50D4B05469C69202383F31188A36B3C
:100FC00010EA030206D160620820FFF741FCA36B20
:100FD00005EA03025042104023EA0003A363002302
:100FE00083F3118838BD00BF90090020AFF3008063
:100FF00010B4024661B1094B9B69586244680D20E8
:1010000083E81400536023605DF8044BFFF738BC9D
:101010004FF0FF305DF8044B704700BF900900208F
:1010200030B4029C046200250A448560026140607D
:10103000006041618161C160C36130BC704700BF25
:10104000034642698069824210B598681BD0541CDF
:1010500001305C619860117059691A6991420BD234
:10106000186898420DD002681A605360FFF7D8FBE9
:1010700000234362184610BD1868DA685A61984226
:10108000F1D1002010BD0028E1D06FF0030010BDA9
:1010900070B5202304460E4683F31188C3692BB133
:1010A000984703E0FFF7A4FF002815DBA56820465A
:1010B0003146002DF6D0A2692169531C8B4205F1FF
:1010C000FF35A361A56028BFE368107828BFA3613E
:1010D000002383F3118870BD2B4683F3118870BD04
:1010E0002DE9F0471E460446D0F81C80202383F3E8
:1010F00011884FF0000901EB020A4F1CB8F1000FF4
:1011000005D02046C04702E0FFF772FFF0B9A5689E
:1011100020463146002DF7D0A369013D5A1CA2613B
:10112000A5601B7807F8013C2369A2699A4224BF95
:10113000E368A361002383F31188574509F101098E
:1011400007D0202383F311880137D7E72B4683F399
:1011500011884846BDE8F087AFF30080AFF3008008
:1011600030B4029C04628D180561406000608260AA
:1011700041618161C160C36130BC7047AFF30080E1
:10118000F8B504460F461646202383F3118803E082
:10119000FFF72EFF002819DBA56820463146002DF9
:1011A000F6D06369013D5A1C6261A5601F70236916
:1011B00062699A4224BFE3686361E3690BB1204628
:1011C0009847002383F311880020F8BD2B4683F352
:1011D0001188F8BDAFF30080AFF30080AFF300805B
:1011E00041698269914210B50346816816D0186939
:1011F0004C1C511C9C609961814214780BD2186878
:10120000984206D002681A605360FFF709FB00237A
:101210004362204610BDDA689A61F0E70029E6D003
:101220006FF0020010BD00BFAFF30080AFF300808D
:101230002DE9F84F9A4604460E461746D0F81C9002
:10124000202383F311884FF00008A56806F1010BF5
:1012500020466B1EDDB16269A360531C6361337865
:101260001370236962699A4224BFE3686361B9F12C
:10127000000F00D0C847002383F31188013F08F115
:1012800001080DD0202383F311885E46DDE7204658
:101290005146FFF7ADFE0028D7D02B4683F31188C7
:1012A0004046BDE8F88F00BFAFF30080AFF3008089
:1012B0000548064A0649074B20F0070022F00702BE
:1012C00008601A60704700BF5F96012000C00120CF
:1012D000B0090020AC090020AFF30080AFF300801C
:1012E000202383F31188094A0949136809680730E4
:1012F00020F00700C91A88429BBFC0181060002068
:101300001846002383F31188704700BFB0090020FE
:10131000AC090020AFF30080AFF30080AFF3008092
:10132000024A034B10681B68C01A7047AC090020C2
:10133000B0090020AFF30080AFF30080AFF300806E
:10134000044B054A1A6003F1100000229A60DA602B
:10135000FFF71EBDB8090020E1120008AFF30080BE
:10136000F8B51E4E002818BF0646073106F11000DA
:1013700021F0070506F10804FFF77AFD03E05A683B
:10138000954211D91C462368002BF8D1FFF780FD48
:1013900033680BB305F108009847E8B10660456073
:1013A00000F108042046F8BD05F10801914208D972
:1013B0001A6822601C4644F8086BFFF769FD204656
:1013C000F8BD6FF00700401B5F18024418685850C2
:1013D0007A6027605D60EDE70024E3E7B80900204C
:1013E00070B50646A0F1080450F8080C00F1080595
:1013F0001030FFF73DFD2B46AB4204D0A34202D391
:101400001B68AB42FAD11A681AB1944201D3134651
:10141000F2E756F8041C46F8082C1C6001F108029B
:1014200056F8085CA018A84209D05A6802F10801D1
:1014300019448C4211D0BDE87040FFF729BD4068C7
:10144000A25846F8082C0A18083246F8042C5A68A4
:1014500002F1080119448C42EDD156F8040C56F8FB
:10146000081C1960024408325A60BDE87040FFF75A
:101470000FBD00BFAFF30080AFF30080AFF300807B
:1014800038B50E4C002818BF044604F110000D4674
:10149000FFF7EEFCA3686BB10022144658681B6886
:1014A00001340244002BF9D105B12A60FFF7F0FCAA
:1014B000204638BD1A461C46F6E700BFB809002092
:1014C000202383F3118803680B600023016083F3FA
:1014D00011887047AFF30080AFF30080AFF3008056
:1014E00008B500F0C5FF094801F072F900F058FD99
:1014F00000F00EF800F0F4FB00F062FC00F0B8FC25
:1015000000F05EFABDE8084002F0A2B940670008AA
:1015100001F04EBCAFF30080AFF30080AFF300806A
:1015200001220023027043600C30FFF731BC00BF82
:1015300010B52023044683F31188416001F050FC6C
:1015400002232370002383F3118810BDAFF30080C2
:10155000F0B585B01F4604460A9E0B9D202383F3F9
:1015600011884FF0030E0C9B02930020009601950A
:101570003B46A06084F800E0204601F0F1FC431CEB
:101580000CBF052302232370002383F3118805B0C9
:10159000F0BD00BFAFF30080AFF30080AFF3008079
:1015A0000C30FFF765BC00BFAFF30080AFF30080E5
:1015B000FFF76EBCAFF30080AFF30080AFF30080A5
:1015C0000379052B01D001207047836A4B604FF4EB
:1015D00000730B6000207047AFF30080AFF3008012
:1015E00030B5054683B010242B680121186801AA84
:1015F00000F0BEFC9DF80430FF2B0FD0013CF3D16E
:1016000002E00120FFF79CFA2B680121186801AA6B
:1016100000F0AEFC9DF80430FF2BF2D103B030BDDA
:1016200070B5144682B00D4606462C30FFF7D8FF41
:10163000220C230A45F04001200E8DF804408DF85D
:1016400002208DF803300E4D8DF800108DF801004A
:101650006B4601AC002201E013F8011F81EA42024F
:10166000A342AA5CF8D15200F36A42F001028DF85D
:10167000052018686A46062100F062FC02B070BDC1
:1016800020650008AFF30080AFF30080AFF3008067
:1016900030B5054683B009242B680121186801AADA
:1016A00000F066FC9DF80400FF2801D1013CF3D155
:1016B00003B030BDAFF30080AFF30080AFF3008024
:1016C000F8B50446C06A0F46154600681E4600F08D
:1016D000FFFB39462A462046FFF7A2FF04F12C0003
:1016E000FFF7D6FFE16A054632460868042100F09C
:1016F0003FFCE36A186800F0FBFB2846F8BD00BF1A
:10170000C36A70B504460E461868154600F0E0FB43
:101710002A4631462046FFF783FF04F12C00FFF7ED
:10172000B7FFE36A0546186800F0E2FB284670BD83
:10173000F0B5C36A85B005460C461868164600F039
:10174000C7FB284621460022FFF76AFF05F12C005F
:10175000FFF79EFF002834D142F2107401E0013CF3
:1017600036D0EB6A012118686A4600F001FC9DF84A
:101770000030FE2BF3D1EB6A102118686A4600F0A6
:10178000F7FB6B4606F10C01321F58781F78DE78A4
:101790009C78000440EA0760304340EA042041F8A6
:1017A0000409914203F10403EFD1EB6A02211868A6
:1017B00000F0AEFBEB6A186800F09AFB002005B061
:1017C000F0BDEB6A186800F093FB012005B0F0BD96
:1017D000012005B0F0BD00BFAFF30080AFF3008083
:1017E00070B5C36A032202710546002280F83020DA
:1017F00082B093E8030000F04BFBEB6A10211868FD
:1018000000F086FB0A2402E00A20FFF799F9002184
:101810000A462846FFF774FF01280AD0013CF3D19D
:10182000EB6A186800F044FB02232B71012002B020
:1018300070BD01AB284608214FF4D572FFF740FF79
:10184000052822D0642404E0013CE9D00A20FFF7F7
:1018500077F9284637210022FFF752FF0128064674
:10186000F2D128462921254A01ABFFF729FF00289C
:10187000EAD1024601AB28463A21FFF721FF9DF845
:1018800004305B0648BF85F83060642405E0012B16
:10189000C6D1013CC4D0FFF753F9284601210022EC
:1018A000FFF72EFF03460A20002BF0D1EB6A1868E1
:1018B000996800F0EDFA284610214FF40072FFF706
:1018C0001FFF0028ACD105F1180422462846092143
:1018D000FFF72EFF0028A3D1204600F0D9F9A86217
:1018E00000289DD028460A2105F10802FFF720FFB5
:1018F000002895D105232B7199E700BFAA0100406C
:1019000010B50368044682B0186800F0E1FA02E0FE
:101910000120FFF715F923680121186801AA00F0DA
:1019200027FB9DF80430FF2BF2D12368186800F0E4
:10193000DFFA02B010BD00BFAFF30080AFF300804C
:1019400038B50446202383F311880379022B16D07F
:1019500004230371002383F31188054655F82C3FB7
:101960009968186800F094FA2846FFF7C9FFE36AFF
:10197000186800F09DFA02232371002038BD00236F
:1019800083F31188002038BDAFF30080AFF30080EF
:1019900070B50579052D044601D0012070BD0646BD
:1019A000082256F82C3F02719968186800F070FA06
:1019B0003046FFF7A5FF2571002070BDAFF3008012
:1019C000704700BFAFF30080AFF30080AFF300803B
:1019D000044B0360012200230271C36280F830309F
:1019E000704700BF20660008AFF30080AFF30080AF
:1019F0000223C16203717047AFF30080AFF3008030
:101A000038B5C36A0446062202710D461868996803
:101A100000F03EFAE36A186800F05AFA94F83030A1
:101A20008BB12A4620461221FFF7FAFD04F12C0063
:101A3000FFF72EFE30B1E36A186800F039FA05238B
:101A40002371012038BD6A0220461221FFF7E8FD0C
:101A5000ECE700BFAFF30080AFF30080AFF300808E
:101A60000379062B70B506460D4601D0012070BDE6
:101A700042F2107401E0013C16D0F36A01211868AB
:101A80002A4600F075FA2B78FE2BF4D1F36A2A4629
:101A900018684FF4007100F06BFAF36A02211868BD
:101AA00000F036FA002070BDF36A186800F020FAE2
:101AB000F36A186800F0FCF905233371012070BD4A
:101AC00038B50379062B044601D0012038BD054600
:101AD000072155F82C3F074A186800F031FA2846CC
:101AE000FFF7D6FDE36A186800F002FA05232371B8
:101AF000002038BD00650008AFF30080AFF3008020
:101B000070B514461D460646FFF77AFF58B915B959
:101B10000BE0013D09D021463046FFF7A1FF04F557
:101B200000740028F5D0012070BD3046BDE870403B
:101B3000FFF7C6BFAFF30080AFF30080AFF30080C4
:101B400038B5C36A0446072202710D4618689968C1
:101B500000F09EF9E36A186800F0BAF994F83030A2
:101B60008BB12A4620461921FFF75AFD04F12C00BB
:101B7000FFF78EFD30B1E36A186800F099F905238C
:101B80002371012038BD6A0220461921FFF748FD64
:101B9000ECE700BFAFF30080AFF30080AFF300804D
:101BA00030B50379072B83B004460D4602D00120DF
:101BB00003B030BDC36A184A1868022100F0C0F9AA
:101BC000E36A2A4618684FF4007100F0B9F9E36A35
:101BD0000221186800F09CF9E36A0121186801AA43
:101BE00000F0C6F99DF8043003F01F03052B0CD05C
:101BF000E36A186800F07CF9E36A186800F058F9A5
:101C000005230120237103B030BD04F12C00FFF740
:101C1000E7FC0020CCE700BF40660008AFF300807F
:101C20000379072B10B5044601D0012010BDC36A0B
:101C3000064A1868022100F083F9E36A186800F088
:101C400057F905232371002010BD00BF106500085F
:101C500070B514461D460646FFF772FF58B915B910
:101C60000BE0013D09D021463046FFF799FF04F50E
:101C700000740028F5D0012070BD3046BDE87040EA
:101C8000FFF7CEBFAFF30080AFF30080AFF300806B
:101C9000C3689B0F0CD0012B08D18268C38802F067
:101CA0003F0043EA00400130800270470020704747
:101CB00042688368910FC3F3090041EA8000C2F3D0
:101CC000C2320232C3F303430130093B90409840D3
:101CD000704700BFAFF30080AFF30080AFF3008028
:101CE00001F0CEBBAFF30080AFF30080AFF3008014
:101CF0000122002302704360704700BFAFF30080F1
:101D000010B52023044683F311888B88038141603A
:101D100001F0CEFB02232370002383F3118810BD52
:101D200008B5202383F3118801F062FC002383F3BC
:101D3000118808BDAFF30080AFF30080AFF30080DF
:101D40000C30FFF7CDB900BFAFF30080AFF30080D8
:101D50000C304FF0FF33FFF7C3B900BFAFF3008083
:101D60003030FFF765BA00BFAFF30080AFF30080FB
:101D700030304FF0FF33FFF75BBA00BFAFF30080A6
:101D80000C30FFF785B900BFAFF30080AFF30080E0
:101D90000C304FF0FF31FFF77BB900BFAFF300808D
:101DA0003030FFF7EDB900BFAFF30080AFF3008034
:101DB00030304FF0FF32FFF7E3B900BFAFF30080E0
:101DC00001F0CEBCAFF30080AFF30080AFF3008032
:101DD00070B50E4B044682B040F8043B01260094D7
:101DE0000B461546606004F1540104F10C002672A4
:101DF0001022FFF715F900942B4604F1300004F18E
:101E000064011022FFF7ACF902B070BD5066000803
:101E100010B52023044683F3118801F0B1FC02239E
:101E20002372002383F3118810BD00BFAFF300803D
:101E300038B5436904460D463BB1294604F10C0010
:101E4000FFF7FEF800280BDB38BD04300421FFF754
:101E500087F8294604F10C00FFF7F2F80028F3DABE
:101E6000201D8021BDE83840FFF77AB8AFF300802D
:101E700001F03EB9AFF30080AFF30080AFF3008014
:101E8000002301220270436083600C30FEF780BFA4
:101E900010B52023044683F31188416001F060F9F6
:101EA00002232370002383F3118810BDAFF3008059
:101EB00010B52023044683F3118801F0F1F9204680
:101EC00001F0B6F901232370002383F3118810BDBC
:101ED00008B5202383F3118801F0D2F9002383F39E
:101EE000118808BDAFF30080AFF30080AFF300802E
:101EF00008B5202383F3118801F0D2F9002383F37E
:101F0000118808BDAFF30080AFF30080AFF300800D
:101F100010B52023044683F311880323037001F0D6
:101F2000CFF9054B9B69A3600220FEF791FC0023CB
:101F300083F3118810BD00BF90090020AFF300802B
:101F400010B52023044683F311880323037001F0A6
:101F5000D7F9054B9B69A3600220FEF779FC0023AB
:101F600083F3118810BD00BF90090020AFF30080FB
:101F700010B52023044683F311880323037001F076
:101F8000DFF9054B9B69A3600220FEF761FC00238B
:101F900083F3118810BD00BF90090020AFF30080CB
:101FA00000F066BBAFF30080AFF30080AFF30080BA
:101FB000002301220270436083607047AFF300800A
:101FC00010B52023044683F31188416000F068FBBC
:101FD00002232370002383F3118810BDAFF3008028
:101FE00010B52023044683F3118800F099FB0123E8
:101FF0002370002383F3118810BD00BFAFF300806E
:1020000030B51C4683B0202383F311880425134682
:1020100000940570012200F0ABFB002383F31188CC
:1020200003B030BDAFF30080AFF30080AFF30080AA
:1020300008B5074B074A196801F03D01996013681C
:102040000BB150689847BDE80840FEF721BA00BFC1
:1020500000600240D8090020AFF30080AFF3008099
:10206000084B094819688268890901F03D0110B5DB
:102070008C019C600AB1C0689047BDE81040FEF733
:1020800007BA00BF00600240D8090020AFF300800B
:10209000084B094819680269090C01F03D0110B5A7
:1020A0000C049C600AB140699047BDE81040FEF7FF
:1020B000EFB900BF00600240D8090020AFF30080F4
:1020C000084B094819688269890D01F03D0110B576
:1020D0008C059C600AB1C0699047BDE81040FEF7CE
:1020E000D7B900BF00600240D8090020AFF30080DC
:1020F00008B5074B07485968026A01F03D01D960ED
:102100000AB1406A9047BDE80840FEF7C1B900BF78
:1021100000600240D8090020AFF30080AFF30080D8
:10212000084B09485968826A890901F03D0110B5D8
:102130008C01DC600AB1C06A9047BDE81040FEF730
:10214000A7B900BF00600240D8090020AFF30080AB
:10215000084B09485968026B090C01F03D0110B5A4
:102160000C04DC600AB1406B9047BDE81040FEF7FC
:102170008FB900BF00600240D8090020AFF3008093
:10218000084B09485968826B890D01F03D0110B573
:102190008C05DC600AB1C06B9047BDE81040FEF7CB
:1021A00077B900BF00600240D8090020AFF300807B
:1021B00008B5074B07481968026C01F03D019960AA
:1021C0000AB1406C9047BDE80840FEF761B900BF16
:1021D00000640240D8090020AFF30080AFF3008014
:1021E000084B09481968826C890901F03D0110B556
:1021F0008C019C600AB1C06C9047BDE81040FEF7AE
:1022000047B900BF00640240D8090020AFF3008046
:10221000084B09481968026D090C01F03D0110B521
:102220000C049C600AB1406D9047BDE81040FEF779
:102230002FB900BF00640240D8090020AFF300802E
:10224000084B09481968826D890D01F03D0110B5F0
:102250008C059C600AB1C06D9047BDE81040FEF748
:1022600017B900BF00640240D8090020AFF3008016
:1022700008B5074B07485968026E01F03D01D96067
:102280000AB1406E9047BDE80840FEF701B900BFB3
:1022900000640240D8090020AFF30080AFF3008053
:1022A000084B09485968826E890901F03D0110B553
:1022B0008C01DC600AB1C06E9047BDE81040FEF7AB
:1022C000E7B800BF00640240D8090020AFF30080E7
:1022D000084B09485968026F090C01F03D0110B51F
:1022E0000C04DC600AB1406F9047BDE81040FEF777
:1022F000CFB800BF00640240D8090020AFF30080CF
:10230000084B09485968826F890D01F03D0110B5ED
:102310008C05DC600AB1C06F9047BDE81040FEF745
:10232000B7B800BF00640240D8090020AFF30080B6
:102330000C4B30B400220C4D0C4C1A601146134665
:10234000E8580C33C02B0160A15002F10802F7D10C
:102350000749084A4FF0FF338B6030BCCB60936075
:10236000D3607047580A002070660008D809002022
:102370000060024000640240AFF30080AFF30080D1
:102380002DE9F041214E447A3768012505FA04FC15
:102390001CEA070F33D11E4D4CEA070705EBC408B2
:1023A00017F0FF0F45F834203760C8F8043004D028
:1023B000184B1C6B44F400141C6317F47F4F18D1A6
:1023C0000468236823F01F032360236813F00105CA
:1023D000FBD1067A43683D27B74021261F60256060
:1023E00066617AB1807A0901FEF7AAF82846BDE84D
:1023F000F081084B1C6B44F480041C63E0E7284622
:10240000BDE8F0811046BDE8F08100BF580A002009
:10241000D809002000380240AFF30080AFF30080FD
:1024200010B50446807AFEF7B3F80D4A637A116856
:10243000012000FA03F321EA030313F0FF0F1360F6
:1024400004D1084A116B21F40011116313F47F4F7A
:1024500004D1044B1A6B22F480021A6310BD00BF32
:10246000580A002000380240AFF30080AFF300802C
:10247000214B22491A69DFF894C000224FF0FF3047
:102480002DE9F00118611A615F6958615A611F6A8C
:102490001B4E1C4D1C4C67F080571F621A620727A9
:1024A000D3F8248058625A62C1F804C08A600F6071
:1024B000F16841F08071F160296841F00101296003
:1024C000196C41F080511964216841F480712160D8
:1024D000196F01F44071B1F5007F03D04FF48031E2
:1024E00019671A67084B5A6822F400725A60BDE8EF
:1024F000F001FFF71DBF00BF0038024010E000E010
:10250000F0ED00E0001000E0007000403F9002009D
:102510002C492D4B4FF080504FF4404208641A6014
:102520000B6843F001030B600B68264A9807FBD544
:10253000936823F0030393609368936011468B685C
:10254000204A13F00C03FAD1116801F0F90111606F
:102550009360136843F480331360136819499B0335
:10256000FBD54B6F43F001034B674B6F154A980740
:10257000FBD5164B53601368134943F08073136007
:102580004B685A04FCD50F490B680E4A9B01FBD5DA
:102590000F4B1049916040F205711960936843F048
:1025A0000203936011468B68064A03F00C03082B64
:1025B000F9D1536C43F480435364536E43F4804326
:1025C00053667047003802400070004008544007CE
:1025D000003C024000944838AFF30080AFF3008025
:1025E00000B511F00C0F83B006D143685B6803B1EE
:1025F000984703B05DF804FB0190FDF711FF0198C7
:10260000F3E700BFAFF30080AFF30080AFF30080CB
:1026100038B5154B154C5969626841F01F01596175
:10262000217813680A1F55425541BBB1052222701B
:10263000204698472378052B10D0A0680B4B48B153
:1026400000229A60202383F31188FEF7E9F8002323
:1026500083F31188BDE83840FDF71ABF002D0CBF89
:10266000032302232370E8E7000005505C0A0020E2
:1026700010B5054C2046FFF79BFC0449044A054B66
:10268000E1602261636110BD5C0A0020000005501A
:10269000DC66000816540202AFF30080AFF300803E
:1026A000194B0278596B012A41F0010110B504461B
:1026B000596318D0636923F4F04343F4A043636182
:1026C000B0214E20FDF73CFFE3686268D96892684C
:1026D00041F00901D960196822F4804222F0010218
:1026E0000A431A6010BD094B984205D02269E3687D
:1026F000126828339360DDE7054A00690A21234602
:10270000FFF73EFEF2E700BF003802405C0A0020FF
:10271000E1250008AFF30080AFF30080AFF3008045
:102720000378022B10B5044602D0052B00D010BD53
:10273000E36820691A6822F4804222F001021A60DC
:10274000DA6822F00902DA60FFF76AFE064B9C4263
:1027500004D04E20BDE81040FDF71ABF034B5A6B62
:1027600022F001025A63F4E75C0A002000380240BC
:10277000F0B40469049D134F134E24684FEA910C82
:10278000002D18BF3E460521E3602561C4F804C052
:1027900026606161236843F001032360C3686AB95E
:1027A0001A6822F002021A601A6842F480421A6023
:1027B0001A6842F001021A60F0BC70471A6842F0D1
:1027C0000202F0E70054060200540202AFF3008058
:1027D0002DE9F00FDFF8AC91DFF8AC81D9F830B01B
:1027E000DFF8A8C1604F614E614D624C6249634A97
:1027F00040F2FF1A4BEA0A0BC9F830B0D9F850B0D2
:102800004BEA0A0AC9F850A04368C8F80430836844
:10281000C8F80830C368C8F80C300369C8F8143029
:102820004369C8F820308369C8F824300368C8F8C1
:102830000030036ACCF80430436ACCF80830836A6D
:10284000CCF80C30C36ACCF81430036BCCF82030D1
:10285000436BCCF82430C369CCF80030C36B7B6089
:10286000036CBB60436CFB60836C7B61C36C3B623D
:10287000036D7B62836B3B60876D7760C76DB7606C
:10288000076EF760476E7761876E3762C76E776253
:10289000476D3760466F6E60866FAE60C66FEE60E4
:1028A000D0F880606E61D0F884602E62D0F88860C5
:1028B0006E62066F2E60D0F890506560D0F894502C
:1028C000A560D0F89850E560D0F89C506561D0F8CC
:1028D000A0502562D0F8A4506562D0F88C502560D5
:1028E000D0F8AC404C60D0F8B0408C60D0F8B44028
:1028F000CC60D0F8B8404C61D0F8BC400C62D0F845
:10290000C0404C62D0F8A8400C60D0F8C8105160AC
:10291000D0F8CC109160D0F8D010D160D0F8D4109D
:102920005161D0F8D8101162D0F8DC105162D0F8A3
:10293000C4101160124BD0F8E4205A60D0F8E8209F
:102940009A60D0F8EC20DA60D0F8F0205A61D0F824
:10295000F4201A62D0F8F8205A62D0F8E0201A6009
:10296000BDE8F00F704700BF00080240000C0240B5
:10297000001002400014024000180240001C0240F7
:1029800000200240003802400000024000040240E3
:102990002DE9F00F002302F00307C2F38006C2F313
:1029A000C105C2F341144FF00F09C2F3C3124FF037
:1029B000010A38E0D0F820B02BEA0C0C4CEA0808E9
:1029C000C0F82080D0F804C00AFA03F82CEA080CFA
:1029D0004CEA060CC0F804C04FF0030B4FEA430C5E
:1029E000D0F808800BFA0CFC6FEA0C0C0CEA080813
:1029F00048EA0508C0F80880D0F80C800CEA0808FE
:102A000048EA0408C0F80C80D0F800800CEA080CF2
:102A10004CEA070CC0F800C049081AD07600AD0097
:102A2000A400BF00013303F0070C4FEA8C0C11F037
:102A3000010F02FA0CF809FA0CFCEDD0072BB9D9FA
:102A4000D0F824B02BEA0C0C4CEA0808C0F824801B
:102A5000B8E7BDE8F00F7047AFF30080AFF3008038
:102A600010B4436B046B4FF40041226819800021BD
:102A7000198099809982136823F01F0313601368EB
:102A8000D907FCD4C16A207A63680A683D2404FA35
:102A900000F01860136823F01F0313601368DB074E
:102AA000FCD40A7A4B685DF8044B3D2101FA02F22E
:102AB0001A607047AFF30080AFF30080AFF300807F
:102AC00038B50446202383F31188C5694DB1FFF75B
:102AD000C7FF00224FF0FF33E26128466B62FDF72B
:102AE0009FFE002383F3118838BD00BFAFF3008041
:102AF00011F00C0F38B50546446B14D1296B0A68E8
:102B0000136823F01F0313601368DB07FCD40A7AF1
:102B10004B683D2101FA02F21A60A3889BB243F48C
:102B20000073A38038BDFDF77BFCE7E7AFF30080BF
:102B300011F00C0F38B50546446B2ED1E96A0A68CE
:102B4000136823F01F0313601368DB07FCD40A7AB1
:102B50004B683D2101FA02F21A60A38823F48053E6
:102B60001B041B0CA380238823F480631B041B0C11
:102B7000238023889BB243F400732380202383F3B4
:102B80001188EB692BB10022EA6118465A62FDF701
:102B900047FE002383F3118838BDFDF741FCCDE7E4
:102BA000414A424938B5546B238BA58AADB245EAF8
:102BB000034323F07F438B4260D021D807398B42F7
:102BC00050D001318B4213D1A388D26A23F4007311
:102BD0001B0412681B0CA380136843F001031360ED
:102BE000A3889BB243F48053A3805368012B54D92C
:102BF00015F00A0F18BF238BBDE83840FDF748BC1D
:102C00002B498B4221D002318B42F1D1D36A1B6810
:102C10005B68002B37D1A38823F400731B041B0CC3
:102C2000A38023889BB243F400732380202383F383
:102C30001188D0691C4A20B100234362D361FDF79B
:102C4000EFFD002383F31188D2E7A388126B23F4EE
:102C500000731B0412681B0CA380136843F001036C
:102C60001360C5E7138C1A0A0BD003F0010343F07D
:102C7000F00302F006021A432282B9E7138CC3F371
:102C800047032382B4E72388118C9BB243F4A063EB
:102C900041F0010111842380AEE7238823F480638F
:102CA0001B041B0C2380A3E7740A00200800030008
:102CB00082000700AFF30080AFF30080AFF3008025
:102CC0003748F8B5446B066BA18A326889B201F4C3
:102CD0005F4383F47F4383F0FF03A382136823F0F1
:102CE0001F0313601368DF07FCD4377AC56A736863
:102CF0002A683D26BE401E60136823F01F03136040
:102D0000136813F00103FBD12E7A6A683D25B540A4
:102D10001560CD0548BF01238A05836044BF43F099
:102D2000020383604F050DD5A28822F400721204BD
:102D3000120CA280228892B243F0040342F4007283
:102D4000228083600E0544BF43F0080383604D0476
:102D500044BF43F020038360CC0444BF43F010031E
:102D600083600A0404D433B9BDE8F840FDF790BB92
:102D700043F040038360202383F31188C069084B2C
:102D800030B16FF0010242620022DA61FDF748FDC6
:102D9000002383F31188BDE8F840FDF779BB00BF3D
:102DA000740A0020AFF30080AFF30080AFF300801F
:102DB00010B5074C2046FEF7B3FB064B064A62638C
:102DC000002103F14802E161E362226310BD00BF0C
:102DD000740A00207066000800540040AFF30080C1
:102DE000037840F256422DE9F047012B826240F20F
:102DF000164204464262456B51D02A46E16A236B73
:102E0000D1F80090D3F800A061684D4E48680F7A61
:102E100005F110034FF4004800244FF4106CC9F87A
:102E20000830CAF80830A5F800802C80A5F804C046
:102E3000938823F03F031B041B0C938093889BB261
:102E400043F02A03B042938020DD3E4B984207DCDA
:102E5000022F6AD0032F5BD048F6FF740D23138432
:102E600094830978138802299BB24BD0032946D05A
:102E7000012907D013802B889BB243F001032B80DC
:102E8000BDE8F08723F00A039BB2F3E72E4C400025
:102E900094FBF0F42B23C4F30B041384E0E72B4BD7
:102EA0009842AAD12A4EC06A316A2A4A41F40011D6
:102EB00000233162052133622346FFF761FA264A77
:102EC000206B05212346FFF75BFA336C43F40013B4
:102ED00033641F205021FDF733FB50212020FDF7E4
:102EE0002FFB616AA36A626B41F0007143F00073CB
:102EF00041F4403143F440336162A3627EE743F022
:102F00000A03B7E723F008039BB243F00203B1E7DB
:102F100000EB80000C4C00EB800094FBF0F46FEAB7
:102F200084446FEA9444A4B298E7074C00EB400055
:102F300094FBF0F46FEA44446FEA5444A4B28DE782
:102F4000A0860100801A060080DE8002740A00203C
:102F500000380240312B0008F12A0008AFF300804E
:102F60002DE9F04987B08046109D446B681C8B4664
:102F700017461E4605D001A82946364A4346FDF7A6
:102F8000CFFB002383F31188D8F82C20D8F83030F9
:102F900010681B68D8F824100022C8F808204FEAEF
:102FA0004B0BD8F82820A8F820B01A60DF600F9AE1
:102FB0005E600E9B0160C360426002E0002383F309
:102FC0001188228B12F0020F4FF0200302D12288C9
:102FD00092050BD583F31188691CEFD0049A002A5F
:102FE000ECD14FF0FF3007B0BDE8F08983F31188D2
:102FF00001351DD0049B002BF3D0A388164D9BB246
:1030000043F40073A3802288AB6992B242F48072C9
:1030100022800220C8F81C30FDF71AFC049B13B173
:1030200001A8FDF79DFBAB69586A07B0BDE8F089C0
:10303000A388094D9BB243F40073A3802288AB6937
:1030400092B242F4807222800220C8F81C30FDF750
:10305000FFFBE8E7C12A000890090020AFF30080D9
:1030600011F00C0F00D17047FDF7DAB9AFF3008013
:1030700011F00C0F38B5044637D1606A0268136846
:1030800023F01F0313601368D907FCD4057A216A63
:1030900043680A683D20A8401860136823F01F03A6
:1030A00013601368DB07FCD46368087A4A681B68FE
:1030B0003D2181401160ABB1042222702046984727
:1030C0002378042B0ED0202383F31188A3682BB11F
:1030D0000022A26018465A62FDF7A2FB002383F388
:1030E000118838BD02232370EDE7FDF799F9C4E795
:1030F00070B5114D114B124C124E4FF6FF7228460F
:103100001A80FEF7BDFE1049104A114BE9612046B6
:1031100006F124012E626962AA62EB62FEF7B0FE3C
:103120000C490D4A0D4BE161A6F13C01303E216294
:103130006662A262E36270BDB00A0020AC0A0020A1
:10314000E00A0020D06600080030014016000106A9
:10315000460001060038004016000100460001004C
:103160000378012B10B504461ED0C3696268A06ABB
:103170005289E16A20F4F04021F4F04112F4006F2A
:103180001CBF40F4205041F42051A062E16242F49F
:1031900041720020072118801A8099801A8892B203
:1031A00042F040021A8010BD194B98420CD0194BC6
:1031B00098421BD0216A626AE3690868116803F1CA
:1031C0000C0282608A60D1E7134A006A0A21234612
:1031D000FFF7D6F8114A606A23460A21FFF7D0F8B4
:1031E0000F4B5A6C42F480525A64E3E70A4A006A71
:1031F0000A212346FFF7C4F8084A606A23460A21D9
:10320000FFF7BEF8064B1A6C42F480421A64D1E70D
:10321000B00A0020E00A0020713000086130000888
:1032200000380240AFF30080AFF30080AFF30080BE
:103230000378022B10B5044600D010BDC369006AA4
:1032400000221A809A80FFF7EBF8606AFFF7E8F82F
:10325000084B9C4208D0084B9C42EED1074B1A6C9D
:1032600022F480421A64E8E7044B5A6C22F480523C
:103270005A6410BDB00A0020E00A00200038024065
:1032800043681A895B68012101FA02F292B25A83FB
:10329000704700BFAFF30080AFF30080AFF3008052
:1032A00043681A895B68012101FA02F292B21A831B
:1032B000704700BFAFF30080AFF30080AFF3008032
:1032C000026A436A12681B6870B4856A094EC06A54
:1032D000094CD66051601560DC6059601860116857
:1032E00041F0010111601A6842F001021A6070BCDD
:1032F000704700BF100B0020AC0A0020AFF3008025
:1033000070B4436A046AC56A24681B68806A094EFF
:10331000E66045F4806561602060DA6059601D6098
:10332000226842F0010222601A6842F001021A602B
:1033300070BC7047100B0020AFF30080AFF300802B
:1033400070B4436A046A866A24681B68C06A094DBF
:10335000E26046F4806661602660DD605960186056
:10336000226842F0010222601A6842F001021A60EB
:1033700070BC7047AC0A0020AFF30080AFF3008050
:1033800008B50648064A43686FF001019B68116161
:103390009847BDE80840FDF77BB800BF140B00203C
:1033A00000000140AFF30080AFF30080AFF3008076
:1033B000134B10B51A69DC681440A4B2E2B2D243D0
:1033C000A0071A6117D4610710D4220709D4E306B5
:1033D00003D50C4843689B6A9847BDE81040FDF749
:1033E00057B8084843681B6A9847F0E705484368A0
:1033F0009B699847E9E7034843681B699847E2E7F8
:1034000000000140140B0020AFF30080AFF30080F8
:1034100038B5174D2B691A69DC681440A4B2E2B2C2
:10342000D2431A61A3071ED4600717D4210710D412
:10343000E20609D4E30703D56B680D489B689847FB
:10344000BDE83840FDF724B86B6809489B6A984787
:10345000F0E76B6806481B6A9847E9E76B68044821
:103460009B699847E2E76B6828461B699847DBE74A
:10347000280B0020AFF30080AFF30080AFF3008093
:1034800038B5064D064C2846FEF732FC054B2B613D
:103490002046FEF72DFC044B236138BD140B0020A1
:1034A000280B00200000014000080040AFF300801E
:1034B0000378012B70B5044655D0036900221A60C9
:1034C0005A639A63DA631A645A626268E66810683B
:1034D0002589D168D46AB6FBF0F00138013D01F0CE
:1034E0000F0180B2ADB201299862DD625C6003D049
:1034F00002290CBF03210021506900F00F000128B0
:103500002ED002282AD0D06900F00F00012822D046
:1035100002281ED0506A00F00F00012803D00228B4
:1035200003D141F4005141F48051106B926819624B
:1035300020F0FF00002A18BF40F001000125002400
:103540004FF4004185225D611C61D86059641A60A6
:1035500070BD41F4007141F48071DBE741F020015E
:1035600041F01001CFE71A4B984208D0194B98420E
:103570001BD0236946F668029A61DA61A5E7164B0B
:103580005A6C42F001025A64596A002241F001016A
:10359000596219205A627021FCF7D2FF1B2070215A
:1035A000FCF7CEFF0D4BE360E3E70B4B1A6C42F0E8
:1035B00004021A64196A002241F0040119621E20F3
:1035C0001A627021FCF7BCFF054BE360D1E700BF36
:1035D000140B0020280B002000380240007A030A58
:1035E00000BD0105AFF30080AFF30080AFF30080B2
:1035F00010B44468036904EBC10001F10C040069D4
:1036000003EB8404626048B10220DA6800FA01F139
:10361000114203D10A43C943DA6019615DF8044BD2
:10362000704700BFAFF30080AFF30080AFF30080BE
:10363000034B9A8992B242F080029A81704700BF90
:1036400000440040AFF30080AFF30080AFF3008090
:10365000F8B53E4E756FAF892C88A4B2E005BFB2B5
:1036600045D4202383F31188A10621D508E0A98839
:103670003648C9B2FEF7DCFB2C88A4B2A00617D5E9
:103680002207F4D014F0080F14BF8021002114F099
:10369000010F18BF41F02001A30748BF41F04001CE
:1036A00064072B4848BF41F48071FDF759FCDEE701
:1036B000002383F31188390601D5220626D4630638
:1036C00011D5202383F31188726CB36C1F489A4282
:1036D0002AD027F04007BFB24FF6BF72AF81002358
:1036E0002A8083F31188BDE8F840FCF7D1BE20237F
:1036F00083F311884FF40071301DFDF731FC002376
:1037000083F311884FF6FF632B80AAE7202383F30E
:1037100011881048FDF764FD00280DDB80B2A880F9
:10372000002383F31188CAE7836B002BD1D00430C8
:103730001021FDF715FCCCE705480821FDF710FC2A
:1037400027F0C00343F04003AB81E9E73C0B0020C6
:10375000400B00206C0B0020AFF30080AFF3008023
:1037600010B5044C044A20460021FEF731FB034B00
:10377000636710BD3C0B0020313600080044004058
:1037800038B5204C037A002918BF0C46012B05469A
:1037900023D06B6F1C4A93422CD002F58062934277
:1037A00028D022681949B1FBF2F292B21A81A2889C
:1037B000E188208942F4045241F0400442F02C0296
:1037C00040F0010092B2A4B280B200211C82988223
:1037D0009A8119801A889B8838BD0D4B9842D8D1A0
:1037E0000C4B1A6C42F400321A642620C021FCF7FC
:1037F000A7FECEE722680849B1FBF2F292B21A8125
:10380000D5E700BF306700080010014080DE80026D
:103810003C0B00200038024000BD0105AFF30080E2
:10382000FEF776BEAFF30080AFF30080AFF3008009
:1038300001207047AFF30080AFF30080AFF300804A
:1038400000207047AFF30080AFF30080AFF300803B
:10385000704700BFAFF30080AFF30080AFF300808C
:1038600010B510B10224204610BD07480479053C6C
:1038700018BF0124FFF7E4FF0028F4D044F004044B
:10388000E4B2204610BD00BFB0940120AFF3008029
:1038900010B510B10224204610BD07480479053C3C
:1038A00018BF0124FFF7CCFF0028F4D044F0040433
:1038B000E4B2204610BD00BFB0940120AFF30080F9
:1038C00030B50C4683B010B1042003B030BD1248AF
:1038D0000179052918BF0320F7D111460193FEF79E
:1038E0008FF8019B80B98BB1013BDDB2013504EB50
:1038F000452501E0AC4209D02146074804F5007493
:10390000FEF7AEF80028F5D00120DEE7024803B04C
:10391000BDE83040FEF7D4B8B0940120AFF300808A
:1039200030B50C4683B010B1042003B030BD174D44
:103930002979052918BF0320F7D128460192009361
:10394000FFF77EFF019A08B10220EEE728461146F4
:10395000FEF7F6F8009B80B98BB1013BDDB2013573
:1039600004EB452501E0AC4209D02146074804F5A7
:103970000074FEF715F90028F5D00120D5E70348BB
:1039800003B0BDE83040FEF74BB900BFB094012052
:1039900008B10420704729B10229FAD14FF400730D
:1039A0001380704708467047AFF30080AFF3008084
:1039B0004FF40410704700BFAFF30080AFF30080F6
:1039C00008B5054B00EB400003EB800008600121C7
:1039D000FDF75EF9012008BDB40B0020AFF30080B5
:1039E00008B50021FDF774F9012008BDAFF3008090
:1039F00008B54FF47A71FDF79BF9D0F1010038BF9B
:103A0000002008BDAFF30080AFF30080AFF300806B
:103A1000FDF79EB9AFF30080AFF30080AFF30080F5
:103A200001460020FDF79CBCAFF30080AFF300809F
:103A3000FDF7D6BCAFF30080AFF30080AFF300809A
:103A40002DE9F041056B8D4204460E4602D0037904
:103A500073B916B90020BDE8F081607804F1340133
:103A600032460123FFF72CFF20BB2663BDE8F0811F
:103A700000F13408414640782A460123FFF750FF01
:103A8000C0B9236A626A20711A449542E1D2E7788C
:103A9000012F01D8DDE7236A1D44013F2A466078E3
:103AA00041460123FFB2FFF73BFF012FF3D1002E68
:103AB000D0D0D2E70120BDE8F08100BFAFF3008095
:103AC0002DE9F84F00210546FFF7BAFF034650B92C
:103AD0002B78032B0AD0002168780A46FFF758FF9D
:103AE000031C18BF01231846BDE8F88F6B79002B23
:103AF000F1D005F1340128630B4605F50D7203F88A
:103B0000010B93424FF00004F9D16A692B6985F8E3
:103B10001C22C2F3072B4FEA124A4FEA134C4FEA1A
:103B2000136E52204FEA1269C3F30728612285F809
:103B30001DB285F81EA24FF0410B4FF0720A5527B7
:103B4000AA2685F8203285F8340085F8350085F8F6
:103B5000362085F81B2285F81F9285F8218285F88A
:103B600022C285F823E285F8327285F8336285F83F
:103B700037B085F81AB285F818A285F819A26878C6
:103B8000AA690123FFF7CCFE6C71A4E7AFF30080B4
:103B900070B504460A46407804F134010123FFF76A
:103BA0008FFE08B1032070BD94F8331294F83222CE
:103BB000174B42EA012212B29A4201D0022070BD94
:103BC00094F86C2094F86D6094F86A5094F86B1037
:103BD000104B120442EA06622A4342EA012222F012
:103BE0007F429A42EBD094F8882094F8895094F858
:103BF000861094F88700120442EA05620A4342EAFA
:103C0000002020F07F40C01A18BF012070BD00BF07
:103C100055AAFFFF46415400AFF30080AFF3008088
:103C20002DE9F04103681C78303C092C154602D878
:103C30005A783A2A0DD0BA4B1C680C6034B1E0684F
:103C4000FFF7D6FE60B90F20BDE8F0810C20BDE87B
:103C5000F08102330360002CEDD00B20BDE8F08131
:103C6000237863B16078FFF713FEC70707D425B345
:103C700010F0040F0CBF00200A20BDE8F0810020E6
:103C800020706070FFF7ECFDC60702D50320BDE889
:103C9000F08125B1450702D50A20BDE8F081204614
:103CA0000021FFF775FF01280AD00025032800F046
:103CB000B580E0B10D20BDE8F0812846BDE8F08177
:103CC00094F8F631002BF5D094F8FC2194F8FD110E
:103CD00094F8FA3194F8FB51120442EA016213435A
:103CE00043EA052529462046FFF752FFDEE794F810
:103CF000402094F83F3043EA0223B3F5007FD9D146
:103D000094F84B1094F84A3053EA01210DD194F8FD
:103D10005A2094F85B0094F8583094F85910120423
:103D200042EA0062134343EA012194F844202162ED
:103D3000531E012BE270BDD894F84130A37002FBF2
:103D400001FC002BB6D05A1E1A42B3D194F846009B
:103D500094F8452042EA002210072281AAD194F863
:103D6000486094F8470050EA06260DD194F8567042
:103D700094F8578094F8540094F855603F0447EA4B
:103D80000867384340EA062694F8437094F84200E6
:103D900050EA07278ED007EB12106044864289D381
:103DA000361AB6FBF3F3002B84D040F6F576B34217
:103DB00040F2B4804FF6F576B34200F294800226CA
:103DC000023328442F44E361E0626762002A3FF433
:103DD00071AF6744022EA76200F0838003EB4302B9
:103DE00003F0010303EB5203012603F2FF13B1EBCF
:103DF000532FFFF45FAF4FF0FF320023032E6261B9
:103E000023610ED0474A26701388002001339BB2ED
:103E100020711380E3802063BDE8F0810120BDE8BC
:103E2000F08194F8651094F86420637142EA0122ED
:103E30002A44A261607804F134010123FFF740FDB8
:103E40000028DFD194F8331294F83222364B42EA3C
:103E5000012212B29A42D5D194F8360094F8375024
:103E600094F8342094F83510304B000440EA056093
:103E7000024342EA01229A42C4D194F81A0294F809
:103E80001B5294F8182294F81912000403F1FF53FE
:103E900040EA056003F500530243203342EA012261
:103EA0009A42AFD194F8227294F81E5294F8238269
:103EB00094F81FC294F8202294F81C3294F821023E
:103EC00094F81D123F042D0447EA086745EA0C6583
:103ED0003A432B4342EA002243EA01232261636111
:103EE00090E75B0081E7023328442F44E361E062FE
:103EF0006762002A7FF4DEAE94F8626094F8637023
:103F000094F8602094F86100360446EA076632436C
:103F100042EA00229B00A262032666E701264FE7E1
:103F2000C40B0020C00B002055AAFFFF5252614174
:103F300010B5044608B103780BB9092010BDC38839
:103F40008B42FAD1C068FFF753FD08B90F2010BDAE
:103F50006078FFF79DFC10F0010F0CBF00200320DC
:103F600010BD00BFAFF30080AFF30080AFF300805F
:103F70000F2902D00068FFF74BBD7047AFF30080F8
:103F8000F8B50378022B04460D4646D0032B28D003
:103F9000012B02D04FF0FF30F8BD416A05EB55060A
:103FA00001EB5621FFF74CFD0028F3D1C6F30803BF
:103FB000616A2344013601EB5621204693F83470A0
:103FC000FFF73EFD0028E5D1C6F30806344494F817
:103FD000343047EA0320EB074CBF0009C0F30B0065
:103FE000F8BD416A01EBD511FFF72AFD0028D1D1B8
:103FF000AD0005F4FE75631993F8370093F8361099
:1040000093F8352093F83430000640EA014040EA46
:104010000220184320F07040F8BD416A01EB1521E1
:10402000FFF70EFD0028B5D16D0005F4FF7563198B
:104030001C4693F8343094F8350043EA0020F8BD6C
:10404000836870B50446012B0D46E18003D00068FB
:10405000C269934201D3022070BDB3B90378032B28
:1040600010D003890022AB42E260F4D9836A03EBEB
:104070001513236105F00F0500EB45103430606126
:10408000002070BD836A002BEBD086783601B542E4
:1040900019D3012BDFD9AD1B9A42ADB2DBD908E0B1
:1040A0000128D8D92068C2699A42D4D9AE420AD828
:1040B0000D461946FFF764FFA91B421C034689B24F
:1040C000EED1012070BD991E023A9142E3603BBFE0
:1040D0008278C36A002102FB013101EB15112161D5
:1040E000C8E700BFAFF30080AFF30080AFF30080FC
:1040F000F8B50378022B04460D4616465AD0032B1A
:1041000038D0012B03D0022001232371F8BD416A6E
:1041100005EB550701EB5721FFF792FC0028F3D17F
:10412000C7F3080315F001052344F2B206D093F853
:10413000341001F00F0141EA0212D2B2616A83F831
:1041400034200137012301EB572123712046FFF76B
:1041500077FC0028D8D1C7F30807002D3ED12744AB
:10416000C6F3032697F8343023F00F031E4387F875
:104170003460C9E7416A01EBD511FFF761FC002803
:10418000C2D1AD0005F4FE75631993F8372012060D
:1041900002F070421643C6F30727310C320E83F843
:1041A000346083F8357083F8361083F837200123A4
:1041B0002371F8BD416A01EB1521FFF741FC00288E
:1041C000A2D16D0005F4FF756219C6F3072382F8CA
:1041D0003530012382F834602371F8BDC6F3071629
:1041E0002744C4E7AFF30080AFF30080AFF3008053
:1041F000F8B505460F46F9B90669C36956B39E423C
:1042000028BF0126344610E0012E25D9022B11D9F2
:10421000022428462146FFF7B3FE20B3411C1FD0DD
:10422000012807D0A64217D0EB6901349C42EBD29B
:10423000012CEED80120F8BD0129FBD9C3699942B0
:10424000F8D2FFF79DFE0128F4D9EB698342F2D83A
:104250003E46D7E70126D5E70020F8BD0128E9D181
:104260004FF0FF30F8BDEB69A342E3D92846214661
:104270006FF07042FFF73CFF0028EFD15FB1012FD4
:10428000D8D9EB699F42D5D2394628462246FFF756
:104290002FFF0028E2D16B692C615A1C05D0012246
:1042A000013B6A716B612046F8BD2046F8BD00BF36
:1042B0002DE9F047C5880135ADB204460E4615B963
:1042C0000420BDE8F0870369002BF9D015F00F0733
:1042D00008D0036803EB471334336361E5800020A3
:1042E000BDE8F087C16801330361036861B19A7862
:1042F000013A12EA1512EDD1012902D9DA69914287
:1043000006D30220BDE8F0871A89AA42D8D9E1E78E
:104310001846FFF735FE01288046F2D9B0F1FF3F7D
:104320001BD02368DA6982420CD9861E023A964273
:10433000C4F80C803BBF9978DA6A002601FB062698
:104340002661C7E7002EBBD01846E168FFF750FF93
:10435000804628B90720BDE8F0870120BDE8F08736
:104360000128CED0B0F1FF3FF7D020680021FFF741
:1043700067FB0028F1D12268014602F1340302F5FF
:104380000D7203F8011B9342FBD12268D369A8F197
:104390000206023B9E423BBFD36A9178002301FB99
:1043A000063313634FF000094FF0010A0CE082F866
:1043B00004A02068FFF744FB09F101090028CCD1D3
:1043C0002268136B0133136392F802C05FFA89F01D
:1043D00084454FF000011346E9D8116BD269091AE0
:1043E0001963A3E7AFF30080AFF30080AFF3008061
:1043F0002DE9F04FFF2685B0534F0546B04609E042
:104400000F2943D04FF0FF0828460021FFF750FF47
:10441000002838D128682969FFF712FB002832D11B
:104420006C692378002B78D0E27AE52B02F03F010B
:10443000E8D01207E4D40F2928D0B8F1000F11D129
:104440009C46224604F10A08034601E012F801CF17
:10445000D90141EA53035CFA83F34245DBB2F5D15B
:10446000B34210D04FF6FF72AB692A84DA7AD207D2
:10447000C8D404F10B0C14F8011B13F8012B914262
:10448000C0D16445F7D105B0BDE8F08FEA69002AD4
:10449000BAD058063DD5E988667B298403F0BF0869
:1044A00094F80DA0B245ADD12378284E23F04003F7
:1044B000013B03EB430C03EB8C0C4FF0010B4FF66D
:1044C000FF7903E0484535D1BE422AD016F8013FB6
:1044D000E018E35C407843EA0020BBF1000FF1D024
:1044E0000CF101030192CDF808C0039300F030FEF7
:1044F000DDF808C0019ABCF1FE0F83461AD832F8E5
:104500001C0000F025FE8345019A13D1DDF80CC094
:10451000DAE743457FF476AFC2E7042005B0BDE893
:10452000F08F2378590609D5BBF1000F06D032F879
:104530001C301BB156464FF0FF0865E708F1FF3805
:104540005FFA88F856465FE76C6800085F68000805
:10455000F8B504460D46E3699D424FF0010720D2AD
:10456000012D0CD920462946FFF70AFD0646C0B1A9
:10457000012804D0411C16D0E3699D4201D30220DA
:10458000F8BD294620460022FFF7B2FD60B96369F5
:104590005A1C02D0013363616771E36935469D425D
:1045A000DED30020F8BD0120F8BD00BFAFF30080CE
:1045B0002DE9F04F0B782F2B83B08846054600F08D
:1045C00038815C2B00F035810024AC6098F8003015
:1045D0001F2B40F23781AA4E01E018F8013F2F2B24
:1045E000FBD05C2BF9D01F2B1846EF6940F2F0800E
:1045F0002F2B2FD05C2B2DD00121A7F1020AC14611
:10460000012400F07DFD08B37F2809D822281DD0A1
:104610009C4A01E0984219D012F8013F002BF9D1D1
:104620002AF8020F19F8010F1F2804F1010340F2C4
:10463000D1802F2810D05C280ED0B3F5807F05D014
:1046400001211C4600F05CFD0028DDD1062003B0EE
:10465000BDE8F08F0024012398444FF0000A002C9D
:10466000F4D007EB440030F8022D202A01D02E2A86
:1046700002D1013CF7D1E9E7AA69002327F81430F9
:1046800002F10B0007EB440E202102F8011B8242CD
:10469000FBD1BB1E4FF0000901E009F1010933F81D
:1046A000022F202AF9D02E2AF7D0B9F1000F01D01D
:1046B0004AF0030A734633F8021D2E2901D0013C4B
:1046C000F9D100239C464FF0080B09F1010982B390
:1046D000202A1FD02E2A1BD05B4520D24C457DD0EE
:1046E0007F2A00F287802B2A00F09580664802E03E
:1046F0008A4200F0908010F8011F0029F8D1A2F141
:104700004101192900F2A9804CF0020CD2B285E0D7
:104710004C4563D04AF0030A37F81920D5E7BBF1BE
:104720000B0F00F0A8804C455BD0A1454AF0030A6E
:1047300057D9AB691A78E52A77D0BBF1080F04BFC7
:104740004FEA8C0C5FFA8CFC0CF00C020C2A69D03E
:104750000CF00301032965D01AF0020F0AD10CF006
:10476000030CBCF1010F08BF4AF0100A042A08BF6D
:104770004AF0080A83F80BA028460021FFF760FCE6
:10478000D0B92846FFF734FEAB69DB7AB0B95907D8
:104790003FF55DAF6B69DA7AD20668D55C7D1A7D2C
:1047A000D87E997E42EA042241EA002343EA02438A
:1047B000AB6098F8003012E7AB69DB7A04287FF42D
:1047C00046AF13F0040F08BF052003B0BDE8F08F1B
:1047D0000024012398444FF0040A40E7BBF10B0F7B
:1047E00049D04FEA8C0C5FFA8CFCA1464FF00B0BC2
:1047F000082391E7104600218DE8081000F080FCA6
:104800009DE8081030B330444AF0020A10F8802CBA
:10481000002A7FF468AF4AF0030A5F22A969CA54EC
:10482000013379E74AF0020A96E705221A70AB696C
:1048300083E708F101080024AC6098F800301F2BD2
:104840003FF6C9AE28462146FFF7FAFB6C6103B07C
:10485000BDE8F08F4AF0020ADDE7A2F161011929F3
:1048600097BF203AD2B2D2B24CF0010CD6E7052065
:1048700003B0BDE8F08F4AF0030A4FF00B0B58E786
:1048800070680008406800084C680008AFF30080BA
:1048900070B401F10B0683B0044611F8015B04F813
:1048A000015BB142F9D1052B0CD9148800E00C460C
:1048B000D90341EA530332F8021F14FA83F39BB27F
:1048C0000029F4D1072203F00F0404F13001013A6A
:1048D00000AD3929154488BF04F137011B096970FF
:1048E000F1D102A911447E2401F8084C02B30178E9
:1048F000202913D0014603E011F8014F202C0DD0E0
:1049000001339342F8D1072A0AD802A9114401328F
:1049100011F8081CC1540133072B06D8072AF4D913
:104920002021C1540133072BF8D903B070BC704764
:104930001346F3E7AFF30080AFF30080AFF30080DE
:104940002DE9F04F8769C66985B00446394601AB49
:1049500011F8015B03F8015B04AA9342F8D19DF8BA
:104960000F30DA0727D50023FB720125E36108E049
:10497000FFF73EFD01350146ADB280B9642D00F070
:10498000F580384601A932462B46FFF781FF00210A
:104990002046FFF755FB014620460029E8D00429B0
:1049A00003D0084605B0BDE8F08F9DF80F30FB72CC
:1049B0009DF80F30E6619B0700F1C080012720467B
:1049C0000021FFF73DFB0028ECD18046054606E0BC
:1049D0001D46FFF76DFC0346002840F0C3802169A7
:1049E0002068FFF72DF803466E1C20460121002B9E
:1049F00040F0B88062691278E52A01D0002AE7D138
:104A00000DB9B4F80680B5B2BD42E2D1012F72D023
:104A100041462046FFF714FB0346002840F0A280E1
:104A2000A269814602F10B0012F8013B4FEAC9115D
:104A300041EA590953FA89F982425FFA89F9F3D1B7
:104A4000013FDFF830811FFA87FB20682169FEF7FC
:104A5000F7FF0346002840F085805FFA8BFA65690E
:104A6000D4F81CE028730AF1FF3202EB42010F2652
:104A700002EB8101A876E876024685F80D90EE7289
:104A80004FF6FF704FF0FF0C0DE03EF81130AB55C4
:104A900001322E441F0A002B08BF03460D2A01F1E4
:104AA000010177700BD0834218F80260EDD1AF1985
:104AB00001320D2A05F806C087F801C0F3D14FF680
:104AC000FF72934202D03EF811300BB94AF0400A0F
:104AD00085F800A0236801221A7120460021FFF703
:104AE000E7FB034600283DD10BF1FF3B1FFA8BFB90
:104AF000BBF1000FA9D120682169FEF7A1FF0028B2
:104B00007FF450AF656905F120022B4603F8010BD5
:104B10009342FBD1A3692A4603F10B0013F8011B52
:104B200002F8011B8342F9D1A369DB7A03F0180371
:104B30002B73236801221A71002033E73388002B7E
:104B40003FF43CAF002301339BB236F81320002A18
:104B5000F9D1074F193387FB0327DB17C3EBA707EF
:104B6000BFB22CE7184605B0BDE8F08F072019E763
:104B70004FECC44E60680008AFF30080AFF30080D4
:104B8000F8B504460D4608B10B20F8BD0A4F3E6843
:104B900036B1F068FEF724FF08B90220F8BD347082
:104BA0003DB12946002001F80C0BFEF709FF002853
:104BB000F3D03D600020F8BDC40B0020AFF30080AF
:104BC0002DE9F0478EB00EAB904643F8341D00221D
:104BD000026005A908F01E0205461846FFF720F8F6
:104BE00006464FF40070FEF71BFF08F01F0907464A
:104BF00000287CD002AB0C900B9396B118F01C0FE0
:104C000071D0042E6FD105A8FFF79AFE49F008096C
:104C100006460A9C002866D119F0080F74D1059B3E
:104C200037E005A80199FFF7C3FC0A9C0646002857
:104C3000E4D1002C63D018F01C0F09D0E37A13F0F4
:104C4000110F5ED118F0040FE6D0FD24082604E011
:104C5000E37ADA0611D5F92404263846FEF7E8FE91
:104C6000012C05983BD9092E39D00C303146FFF77D
:104C70007FF930460EB0BDE8F08718F0020F01D082
:104C8000DB073ED408F00802D2B2059B0AB149F016
:104C900020091B6BEB6138462C62FEF7C9FE85F8D4
:104CA0000690667DA17E227DE37E059842EA06227B
:104CB00041EA032343EA02432B61A27FE77F267F79
:104CC000617FC388AB80120442EA0762324342EA42
:104CD000012200262860EA60AE60AE61C5E730467A
:104CE0000EB0BDE8F087A6F10B04E4B2B5E7059B72
:104CF000D868FEF78DFE11200EB0BDE8F0870626BD
:104D00007CE7FC240726A8E7FEF752FE94F815E09E
:104D1000A27E267DE17E059BA073C0F3072846EAAC
:104D20000E2642EA01214FEA104C002284F80F803F
:104D3000000E4FF0010E51EA064884F810C060746E
:104D4000E27222776277A277E277A276E276227524
:104D5000627583F804E09AD0F045D3F830A002D011
:104D6000DA69904502D3F724022676E718464146D1
:104D7000FFF7EEFB06460028B5D1059808F1FF3392
:104D800051460361FEF75CFE06460028ABD1059B49
:104D90007DE700BFAFF30080AFF30080AFF300808A
:104DA0002DE9F04F06469B46002383B08946CBF899
:104DB00000300068B1889046FFF7BAF8044688B121
:104DC000A0F10B03DBB2012B306840F28C80092C80
:104DD00000F089800C302146FFF7CAF8204603B066
:104DE000BDE8F08FB3791C0600F18180980740F18F
:104DF000B580F168B26818EB010F68D2B8F1000F06
:104E000065D006F12403019306F50977C2F3080380
:104E1000002B7ED133689D78013D05EA522515F0BF
:104E2000FF050DD1002A40F0A1803069002800F074
:104E3000B080012800F0BD80411C00F0C580706189
:104E4000B27952067DD47269D969023A02398A422E
:104E500080F0AF809978DC6A02FB0144002C00F0FE
:104E6000A8805FEA582A2C4449D005EB0A028A42FE
:104E700088BFC5EB010A5878494622465FFA8AF393
:104E8000FEF74EFD002878D1B5692C1BA2450CD940
:104E900009EB4425019C15F8013B04F8013BBC4299
:104EA000F9D1B37923F04003B3714FEA4A20B268D5
:104EB00009EB0001DBF8003002440344B8EB0008C2
:104EC000B2608946CBF80030A0D1F168B379914245
:104ED00038BFF26043F020033268B371D068FEF748
:104EE00097FD00207BE7204603B0BDE8F08F3368D4
:104EF000D868FEF78DFD022003B0BDE8F08FB269DF
:104F0000A242B26802D0F1688A4248D3B461C2F3C7
:104F10000803C3F50070404528BF4046334424339E
:104F2000494648B109EB00014C4614F8012B03F83F
:104F3000012B8C42F9D1B268B37943F04003B371CD
:104F4000B8E75878B26901990123FEF7E9FCB27914
:104F50003368A0B922F04002B27174E73368D868B0
:104F6000FEF756FD072003B0BDE8F08F18467169C3
:104F7000FFF73EF950B333685BE7B279336862F00C
:104F80007F02B271D868FEF743FD012003B0BDE88F
:104F9000F08F18462946FFF72BF93061EAE7587879
:104FA000019922460123FEF78BFC0028E5D1B26867
:104FB000ACE7B27962F07F02B271D868FEF728FDE3
:104FC000022003B0BDE8F08FB279D8E7B268F1688B
:104FD000B3797CE7AFF30080AFF30080AFF30080DC
:104FE00038B504460068A188FEF7A2FF05460028F0
:104FF0004CD1A3799A0606D4206829460C30FEF7D6
:10500000B7FF284638BD5B060DD52146A26951F889
:10501000240B01234078FEF783FC002846D1A379B6
:1050200023F04003A3712068E169FEF709FD0546FE
:1050300060BB256AEB7A43F02003EB72E3682B77C1
:10504000A3891B0A6B77E389AB77E37BEB77236953
:10505000AB76238A1B0AEB76638A2B75638A1B0A5D
:105060006B75FEF7A5FCC0F30721020C030E2A7630
:10507000A875E9756B76A179236821F020010122DA
:10508000A1711A712068FEF71BFD0546A5F10B03FF
:10509000DBB2012B206801D9092D01D1284638BD8A
:1050A0000C302946FEF764FF284638BD2368D868CF
:1050B000FEF7AEFC012038BDAFF30080AFF30080F7
:1050C00010B50446FFF78CFF00B9206010BD00BF8B
:1050D00010B582B002AC01AB04F8080D01220846FD
:1050E0006946FFF75DFE019B012B14BF4FF0FF30B7
:1050F000012002B010BD00BFAFF30080AFF300800D
:105100007F2810B40ED981B90E4B01E0802915D04B
:1051100033F8022F82428CB201F10101F6D104F181
:10512000800080B25DF8044B7047FF2806D88038B5
:10513000054B5DF8044B33F81000704700205DF814
:10514000044B7047EE680008F0680008AFF3008079
:1051500061280AD00749002201E0834206D031F8D5
:10516000023F0132002BF8D170470022024B33F886
:1051700012007047F0690008D06B0008AFF30080A0
:105180000EB400B582B003AA52F8041B019200F0DD
:105190000FFA02B05DF804EB03B07047AFF3008084
:1051A000002903DD0449054AFFF7EABF044B05491E
:1051B000DA68FFF7E5BF00BFB06D0008BC6D0008FE
:1051C00080090020C46D0008AFF30080AFF30080B9
:1051D00010B5002982B0044606DD1949194A02B00B
:1051E000BDE81040FFF7CCBF1749184AFFF7C8FFCA
:1051F00020461749174AFFF7C3FF20461649174AAA
:10520000FFF7BEFF20461649164AFFF7B9FF2046B2
:105210001549164AFFF7B4FF20461549154AFFF70E
:10522000AFFF20461449154AFFF7AAFF144B00931D
:1052300020461449144A154BFFF7A2FF02B010BDD7
:10524000B06D0008CC6D0008D46D0008E86D000852
:10525000F06D0008046E00084C6E0008606E0008D7
:105260006C6E0008806E00088C6E0008A06E00084E
:10527000B86E0008CC6E0008006F0008146F0008BC
:10528000646F00083C6F0008546F0008606F0008EE
:1052900038B504460D4690B1286020460B4901F010
:1052A000F7F804442046094901F0CAF860B1421CED
:1052B00000232A600370237823B1204638BD0C6890
:1052C000002CEAD1002038BD2860F4E7706F000898
:1052D000014B1B60704700BFC80B0020AFF300807C
:1052E00010B52023044683F3118804480021FBF7FE
:1052F00037FE2046BDE81040FBF732BCC80B00204B
:1053000000B583B0034B00900020FBF779FC03B09D
:105310005DF804FBC1530008AFF30080AFF30080D9
:10532000F0B5013A83B00E468F1804460D46236847
:1053300020465B680DF107010122984748B39DF8AC
:105340000710042928D0082910D07F290ED00D2954
:1053500029D01F29EBD9BD42E9D2236820469B689A
:1053600098479DF807302B700135E0E7B54220469D
:10537000DDD023689B689847236820469B682021DE
:10538000984723689DF807109B682046013D984781
:10539000CDE7012003B0F0BD20460749FFF7F0FE3E
:1053A000012003B0F0BD20460449FFF7E9FE0020CC
:1053B000287003B0F0BD00BF746F0008FC730008D4
:1053C0002DE9F041574B06689B69574AD0F8048095
:1053D00056499A6196B03046FFF7D2FE304654499E
:1053E000FFF7CEFE304606A94022FFF799FF04469C
:1053F00000282FD1694606A8FFF74AFF69460746ED
:1054000000206D46FFF744FF50B1042C1BD045F837
:10541000040F694600200134FFF73AFF0028F4D159
:1054200016AA02EB840343F8540C002FD6D038465A
:10543000404900F0DDFFC0B984B130463E493D4AE5
:10544000FFF79EFECAE730463C49FFF799FE00236E
:105450000593C3E730463A49FFF792FE0020FFF775
:105460003FFF002016B0BDE8F0813846354900F016
:10547000BFFF30B93046BCB12F49324AFFF780FE3A
:10548000ACE7314D286820B931E055F8080F002805
:105490002DD0394600F0ACFF0028F6D16B682146CC
:1054A000304601AA984799E7274D2849FFF768FE3B
:1054B0002A682C463AB130462549FFF761FE54F878
:1054C000082F002AF7D1B8F1000F0BD0D8F8002030
:1054D00042B1444630461E49FFF752FE54F8082FA9
:1054E000002AF7D130461B49FFF74AFE76E7B8F1AC
:1054F000000F0DD0D8F8000050B1454602E055F835
:10550000080F28B1394600F073FF0028F7D1C5E72E
:1055100030463A461049FFF733FE30460F49FFF751
:105520002FFE5BE790090020786F0008806F00086D
:10553000986F0008C46F0008B06D0008AC6F0008D9
:10554000A06F0008CC6F000800080020D46F00088E
:10555000EC6F0008FC730008F06F0008F46F00089F
:10556000F0B400F10B0700F10A050C46B1FBF2F6AE
:1055700002FB161101F13003392BC8BF01F13703CB
:10558000DBB2B4FBF2F431462E4605F80139002CAB
:10559000ECD1B91B3246014401E012F8013F00F89A
:1055A000013B8842F9D1F0BC704700BFAFF30080E7
:1055B0002DE9F04F89B00DF115030DF1140ACAEB76
:1055C000030C029383460C461646CDF80CC0217896
:1055D000621C59B125290CD0DBF8000014468568FF
:1055E0005846A8472178621C0029F3D109B0BDE8CC
:1055F000F08F61782D2903BFA178A21C012300231D
:105600002E2900F0D180302900F0CE8020271446CA
:10561000002506E03278043605EB8505217802EB9B
:105620004505A1F13002D2B2092A04F10104F3D9EF
:105630002A29EFD02E294FF000002BD001F0DF02F5
:105640004C2A34D0A1F14402342A00F2A680DFE8CB
:1056500002F09CA4A4A4A49CA4A4A4A4A49AA4A47A
:10566000A4A4A434A4A46EA4A4A4A4A4A4A4A4A4A0
:10567000A4909CA4A4A4A49CA4A4A4A4A49AA4A418
:10568000A470A434A4A46E003278043600EB800029
:1056900002EB400014F8011BA1F13002D2B2092A3A
:1056A000F4D92A29F0D001F0DF024C2ACAD122789D
:1056B000002AC7D001341146C4E70A223168504697
:1056C00004360193FFF74CFF019BCAEB000000F189
:1056D000FF38D1462D1A25EAE5756BB96D425DB1EB
:1056E00099F800102D2963D0DBF800205846926805
:1056F000394690470135F7D1B8F1000F0BDBC844AC
:1057000009F1FF39DBF8002019F8011F92685846AB
:105710009047C145F6D1002D3FF459AFDBF800208A
:105720005846926839469047013DF7D14FE710221D
:10573000C4E7D6F800902D4AB9F1000F08BF914692
:1057400047F6FF7199F800200436002808BF084684
:10575000002A46D048444A4601E0824234D051787B
:1057600001320029F9D1C9EB020000F1FF382027EE
:10577000B0E7039832688DF81420043600F1FF3842
:105780002027D146A6E7082298E73168002906F1CC
:1057900004061FDB50460A2293E703988DF8141085
:1057A00000F1FF38D14695E75178302701322EE7D6
:1057B000302F99D1DBF8002058469268904709F1C4
:1057C000010908F1FF388FE7C9EB000000F1FF384D
:1057D00020277FE72D2249428DF814200DF1150076
:1057E000D9E710464FF0FF38202773E70070000814
:1057F00070B5104C86B00646002520468DF8141072
:105800008DF815208DF81350FBF7CAFE0DF1130229
:105810000523019531460092029305AA02232046F2
:10582000FBF796FE05462046FBF7C2FE284606B06B
:1058300070BD00BF740A0020AFF30080AFF300809A
:10584000F0B587B006AC054604F8041D0C481746B1
:1058500004AEFBF7A5FE012305202246029029464F
:10586000009601930648FBF773FE04460448FBF7D5
:105870009FFE14B99DF810303B70204607B0F0BD74
:10588000740A0020AFF30080AFF30080AFF3008014
:105890002DE9F843584F594DDFF88081DFF88091AA
:1058A000574C38464FF4807140F20622FDF770F8ED
:1058B00040F2062238464FF40071FDF769F851486E
:1058C0005149FBF735FE012128460A46FDF760F8ED
:1058D000284602210122FDF75BF8012602231A4621
:1058E0006E8328462B834FF48071FDF751F84748AB
:1058F0004749FCF705FA2846042140F28232FDF7B9
:1059000047F8284640F282320821FDF741F8414825
:105910004149FCF77DFA4046402140F28262FDF7A2
:1059200037F84046802140F28262FDF731F8404668
:105930004FF4807140F28262FDF72AF840464FF43E
:10594000007140F28262FDF723F84846102140F2D0
:105950008262FDF71DF83846402140F28262FDF771
:1059600017F84846202140F28262FDF711F84846B8
:10597000402140F28262FDF70BF82846102140F2E8
:105980008262FDF705F83846802140F28262FCF71A
:10599000FFFF2846402140F28262FCF7F9FF3246C1
:1059A00020464FF48051FCF7F3FF204632464FF477
:1059B0000051FCF7EDFF204632464FF48041FCF7E2
:1059C000E7FF204632464FF40041FCF7E1FF4FF479
:1059D00080454FF400434FF480504FF400516083F2
:1059E000324661832046658310216383FCF7D0FF34
:1059F00010236383BDE8F8830004024000000240E6
:105A0000000C0240740A002050700008140B0020A3
:105A1000107000083C0B002018080020000802400D
:105A200000100240AFF30080AFF30080AFF30080BE
:105A30000A4608B501463020FFF7DAFE003018BFED
:105A4000012008BDAFF30080AFF30080AFF300800A
:105A50000A4608B501463020FFF7F2FE003018BFB5
:105A6000012008BDAFF30080AFF30080AFF30080EA
:105A700010B5841C14F8021C14F8012CFF2901D164
:105A8000FF2A07D03020FFF7B3FE02340028F1D000
:105A9000012010BD002010BDAFF30080AFF30080E7
:105AA000024B5A6982F400425A617047000C02406E
:105AB00010B5084C23680133092B236004DD064828
:105AC000FCF78EFA00232360044B5A6982F480525B
:105AD0005A6110BD000E00205C0A0020000C02403C
